{
  "contractName": "MedicalData",
  "abi": [
    {
      "constant": true,
      "inputs": [
        {
          "name": "",
          "type": "uint256"
        }
      ],
      "name": "users",
      "outputs": [
        {
          "name": "company",
          "type": "string"
        },
        {
          "name": "ConnectCnt",
          "type": "uint256"
        }
      ],
      "payable": false,
      "stateMutability": "view",
      "type": "function"
    },
    {
      "constant": true,
      "inputs": [],
      "name": "owner",
      "outputs": [
        {
          "name": "",
          "type": "address"
        }
      ],
      "payable": false,
      "stateMutability": "view",
      "type": "function"
    },
    {
      "constant": true,
      "inputs": [
        {
          "name": "",
          "type": "address"
        }
      ],
      "name": "userAddressToId",
      "outputs": [
        {
          "name": "",
          "type": "uint256"
        }
      ],
      "payable": false,
      "stateMutability": "view",
      "type": "function"
    },
    {
      "inputs": [],
      "payable": false,
      "stateMutability": "nonpayable",
      "type": "constructor"
    },
    {
      "payable": true,
      "stateMutability": "payable",
      "type": "fallback"
    },
    {
      "anonymous": false,
      "inputs": [
        {
          "indexed": false,
          "name": "id",
          "type": "uint256"
        },
        {
          "indexed": false,
          "name": "company",
          "type": "string"
        }
      ],
      "name": "NewUser",
      "type": "event"
    },
    {
      "constant": false,
      "inputs": [
        {
          "name": "company",
          "type": "string"
        }
      ],
      "name": "createUser",
      "outputs": [],
      "payable": false,
      "stateMutability": "nonpayable",
      "type": "function"
    },
    {
      "constant": true,
      "inputs": [
        {
          "name": "add",
          "type": "address"
        },
        {
          "name": "file",
          "type": "string"
        }
      ],
      "name": "getLookCount",
      "outputs": [
        {
          "name": "",
          "type": "uint256"
        }
      ],
      "payable": false,
      "stateMutability": "view",
      "type": "function"
    },
    {
      "constant": true,
      "inputs": [
        {
          "name": "add",
          "type": "address"
        },
        {
          "name": "file",
          "type": "string"
        }
      ],
      "name": "getDownloadCount",
      "outputs": [
        {
          "name": "",
          "type": "uint256"
        }
      ],
      "payable": false,
      "stateMutability": "view",
      "type": "function"
    },
    {
      "constant": true,
      "inputs": [
        {
          "name": "add",
          "type": "address"
        }
      ],
      "name": "getLoginCount",
      "outputs": [
        {
          "name": "",
          "type": "uint256"
        }
      ],
      "payable": false,
      "stateMutability": "view",
      "type": "function"
    },
    {
      "constant": true,
      "inputs": [
        {
          "name": "add",
          "type": "address"
        }
      ],
      "name": "getCompany",
      "outputs": [
        {
          "name": "",
          "type": "string"
        }
      ],
      "payable": false,
      "stateMutability": "view",
      "type": "function"
    },
    {
      "constant": false,
      "inputs": [
        {
          "name": "nums",
          "type": "uint256"
        },
        {
          "name": "file",
          "type": "string"
        }
      ],
      "name": "Download",
      "outputs": [],
      "payable": false,
      "stateMutability": "nonpayable",
      "type": "function"
    },
    {
      "constant": false,
      "inputs": [
        {
          "name": "nums",
          "type": "uint256"
        },
        {
          "name": "file",
          "type": "string"
        }
      ],
      "name": "reading",
      "outputs": [],
      "payable": false,
      "stateMutability": "nonpayable",
      "type": "function"
    },
    {
      "constant": false,
      "inputs": [
        {
          "name": "company",
          "type": "string"
        }
      ],
      "name": "login",
      "outputs": [],
      "payable": false,
      "stateMutability": "nonpayable",
      "type": "function"
    },
    {
      "constant": true,
      "inputs": [
        {
          "name": "add",
          "type": "address"
        }
      ],
      "name": "findUsers",
      "outputs": [
        {
          "name": "company",
          "type": "string"
        },
        {
          "name": "connect",
          "type": "uint256"
        }
      ],
      "payable": false,
      "stateMutability": "view",
      "type": "function"
    },
    {
      "constant": true,
      "inputs": [
        {
          "name": "add",
          "type": "address"
        },
        {
          "name": "file",
          "type": "string"
        }
      ],
      "name": "findDataAccess",
      "outputs": [
        {
          "name": "Look",
          "type": "uint256"
        },
        {
          "name": "Download",
          "type": "uint256"
        }
      ],
      "payable": false,
      "stateMutability": "view",
      "type": "function"
    }
  ],
  "bytecode": "0x60806040523480156200001157600080fd5b50336000806101000a81548173ffffffffffffffffffffffffffffffffffffffff021916908373ffffffffffffffffffffffffffffffffffffffff160217905550620000986040518060400160405280600781526020017f6d616e61676572000000000000000000000000000000000000000000000000008152506200009e60201b60201c565b62000395565b6000600260003373ffffffffffffffffffffffffffffffffffffffff1673ffffffffffffffffffffffffffffffffffffffff168152602001908152602001600020541415620000f957620000f8816200016a60201b60201c565b5b6001600260003373ffffffffffffffffffffffffffffffffffffffff1673ffffffffffffffffffffffffffffffffffffffff16815260200190815260200160002054815481106200014657fe5b90600052602060002090600402016003016000815480929190600101919050555050565b62000174620002cc565b818160000181905250600060018083908060018154018082558091505090600182039060005260206000209060040201600090919290919091506000820151816000019080519060200190620001cc929190620002e6565b5060208201518160030155505003905080600260003373ffffffffffffffffffffffffffffffffffffffff1673ffffffffffffffffffffffffffffffffffffffff168152602001908152602001600020819055507f3a52155893b2ec6509fcf7e2ecd1f6ee597aa43c6dbb274922f27e856176428181846040518083815260200180602001828103825283818151815260200191508051906020019080838360005b838110156200028b5780820151818401526020810190506200026e565b50505050905090810190601f168015620002b95780820380516001836020036101000a031916815260200191505b50935050505060405180910390a1505050565b604051806040016040528060608152602001600081525090565b828054600181600116156101000203166002900490600052602060002090601f016020900481019282601f106200032957805160ff19168380011785556200035a565b828001600101855582156200035a579182015b82811115620003595782518255916020019190600101906200033c565b5b5090506200036991906200036d565b5090565b6200039291905b808211156200038e57600081600090555060010162000374565b5090565b90565b61166480620003a56000396000f3fe6080604052600436106100c25760003560e01c806362bc56e61161007f5780638dcc32e4116100595780638dcc32e4146107665780639eccc714146108375780639f78a94614610933578063e53614b614610998576100c2565b806362bc56e6146105e057806368571fda146106aa5780638da5cb5b1461070f576100c2565b80630b2c4ae2146100c457806310e554a2146101c7578063365b98b2146102995780633a7d280c146103545780634e96efcd1461041c578063507ffba514610518575b005b3480156100d057600080fd5b506101aa600480360360408110156100e757600080fd5b81019080803573ffffffffffffffffffffffffffffffffffffffff1690602001909291908035906020019064010000000081111561012457600080fd5b82018360208201111561013657600080fd5b8035906020019184600183028401116401000000008311171561015857600080fd5b91908080601f016020809104026020016040519081016040528093929190818152602001838380828437600081840152601f19601f820116905080830192505050505050509192919290505050610a6a565b604051808381526020018281526020019250505060405180910390f35b3480156101d357600080fd5b50610297600480360360408110156101ea57600080fd5b81019080803590602001909291908035906020019064010000000081111561021157600080fd5b82018360208201111561022357600080fd5b8035906020019184600183028401116401000000008311171561024557600080fd5b91908080601f016020809104026020016040519081016040528093929190818152602001838380828437600081840152601f19601f820116905080830192505050505050509192919290505050610c22565b005b3480156102a557600080fd5b506102d2600480360360208110156102bc57600080fd5b8101908080359060200190929190505050610cf8565b6040518080602001838152602001828103825284818151815260200191508051906020019080838360005b838110156103185780820151818401526020810190506102fd565b50505050905090810190601f1680156103455780820380516001836020036101000a031916815260200191505b50935050505060405180910390f35b34801561036057600080fd5b5061041a6004803603602081101561037757600080fd5b810190808035906020019064010000000081111561039457600080fd5b8201836020820111156103a657600080fd5b803590602001918460018302840111640100000000831117156103c857600080fd5b91908080601f016020809104026020016040519081016040528093929190818152602001838380828437600081840152601f19601f820116905080830192505050505050509192919290505050610dc1565b005b34801561042857600080fd5b506105026004803603604081101561043f57600080fd5b81019080803573ffffffffffffffffffffffffffffffffffffffff1690602001909291908035906020019064010000000081111561047c57600080fd5b82018360208201111561048e57600080fd5b803590602001918460018302840111640100000000831117156104b057600080fd5b91908080601f016020809104026020016040519081016040528093929190818152602001838380828437600081840152601f19601f820116905080830192505050505050509192919290505050610e83565b6040518082815260200191505060405180910390f35b34801561052457600080fd5b506105de6004803603602081101561053b57600080fd5b810190808035906020019064010000000081111561055857600080fd5b82018360208201111561056a57600080fd5b8035906020019184600183028401116401000000008311171561058c57600080fd5b91908080601f016020809104026020016040519081016040528093929190818152602001838380828437600081840152601f19601f820116905080830192505050505050509192919290505050610f52565b005b3480156105ec57600080fd5b5061062f6004803603602081101561060357600080fd5b81019080803573ffffffffffffffffffffffffffffffffffffffff1690602001909291905050506110ad565b6040518080602001828103825283818151815260200191508051906020019080838360005b8381101561066f578082015181840152602081019050610654565b50505050905090810190601f16801561069c5780820380516001836020036101000a031916815260200191505b509250505060405180910390f35b3480156106b657600080fd5b506106f9600480360360208110156106cd57600080fd5b81019080803573ffffffffffffffffffffffffffffffffffffffff1690602001909291905050506111ac565b6040518082815260200191505060405180910390f35b34801561071b57600080fd5b50610724611213565b604051808273ffffffffffffffffffffffffffffffffffffffff1673ffffffffffffffffffffffffffffffffffffffff16815260200191505060405180910390f35b34801561077257600080fd5b506107b56004803603602081101561078957600080fd5b81019080803573ffffffffffffffffffffffffffffffffffffffff169060200190929190505050611238565b6040518080602001838152602001828103825284818151815260200191508051906020019080838360005b838110156107fb5780820151818401526020810190506107e0565b50505050905090810190601f1680156108285780820380516001836020036101000a031916815260200191505b50935050505060405180910390f35b34801561084357600080fd5b5061091d6004803603604081101561085a57600080fd5b81019080803573ffffffffffffffffffffffffffffffffffffffff1690602001909291908035906020019064010000000081111561089757600080fd5b8201836020820111156108a957600080fd5b803590602001918460018302840111640100000000831117156108cb57600080fd5b91908080601f016020809104026020016040519081016040528093929190818152602001838380828437600081840152601f19601f8201169050808301925050505050505091929192905050506113bc565b6040518082815260200191505060405180910390f35b34801561093f57600080fd5b506109826004803603602081101561095657600080fd5b81019080803573ffffffffffffffffffffffffffffffffffffffff16906020019092919050505061148b565b6040518082815260200191505060405180910390f35b3480156109a457600080fd5b50610a68600480360360408110156109bb57600080fd5b8101908080359060200190929190803590602001906401000000008111156109e257600080fd5b8201836020820111156109f457600080fd5b80359060200191846001830284011164010000000083111715610a1657600080fd5b91908080601f016020809104026020016040519081016040528093929190818152602001838380828437600081840152601f19601f8201169050808301925050505050505091929192905050506114a3565b005b6000806000809054906101000a900473ffffffffffffffffffffffffffffffffffffffff1673ffffffffffffffffffffffffffffffffffffffff163373ffffffffffffffffffffffffffffffffffffffff1614610ac657600080fd5b6000600260008673ffffffffffffffffffffffffffffffffffffffff1673ffffffffffffffffffffffffffffffffffffffff16815260200190815260200160002054905060018181548110610b1757fe5b9060005260206000209060040201600101846040518082805190602001908083835b60208310610b5c5780518252602082019150602081019050602083039250610b39565b6001836020036101000a03801982511681845116808217855250505050505090500191505090815260200160405180910390205460018281548110610b9d57fe5b9060005260206000209060040201600201856040518082805190602001908083835b60208310610be25780518252602082019150602081019050602083039250610bbf565b6001836020036101000a03801982511681845116808217855250505050505090500191505090815260200160405180910390205492509250509250929050565b816001600260003373ffffffffffffffffffffffffffffffffffffffff1673ffffffffffffffffffffffffffffffffffffffff1681526020019081526020016000205481548110610c6f57fe5b9060005260206000209060040201600201826040518082805190602001908083835b60208310610cb45780518252602082019150602081019050602083039250610c91565b6001836020036101000a0380198251168184511680821785525050505050509050019150509081526020016040518091039020600082825401925050819055505050565b60018181548110610d0557fe5b9060005260206000209060040201600091509050806000018054600181600116156101000203166002900480601f016020809104026020016040519081016040528092919081815260200182805460018160011615610100020316600290048015610db15780601f10610d8657610100808354040283529160200191610db1565b820191906000526020600020905b815481529060010190602001808311610d9457829003601f168201915b5050505050908060030154905082565b6000600260003373ffffffffffffffffffffffffffffffffffffffff1673ffffffffffffffffffffffffffffffffffffffff168152602001908152602001600020541415610e1357610e1281610f52565b5b6001600260003373ffffffffffffffffffffffffffffffffffffffff1673ffffffffffffffffffffffffffffffffffffffff1681526020019081526020016000205481548110610e5f57fe5b90600052602060002090600402016003016000815480929190600101919050555050565b60006001600260008573ffffffffffffffffffffffffffffffffffffffff1673ffffffffffffffffffffffffffffffffffffffff1681526020019081526020016000205481548110610ed157fe5b9060005260206000209060040201600201826040518082805190602001908083835b60208310610f165780518252602082019150602081019050602083039250610ef3565b6001836020036101000a038019825116818451168082178552505050505050905001915050908152602001604051809103902054905092915050565b610f5a611579565b818160000181905250600060018083908060018154018082558091505090600182039060005260206000209060040201600090919290919091506000820151816000019080519060200190610fb0929190611593565b5060208201518160030155505003905080600260003373ffffffffffffffffffffffffffffffffffffffff1673ffffffffffffffffffffffffffffffffffffffff168152602001908152602001600020819055507f3a52155893b2ec6509fcf7e2ecd1f6ee597aa43c6dbb274922f27e856176428181846040518083815260200180602001828103825283818151815260200191508051906020019080838360005b8381101561106d578082015181840152602081019050611052565b50505050905090810190601f16801561109a5780820380516001836020036101000a031916815260200191505b50935050505060405180910390a1505050565b60606001600260008473ffffffffffffffffffffffffffffffffffffffff1673ffffffffffffffffffffffffffffffffffffffff16815260200190815260200160002054815481106110fb57fe5b90600052602060002090600402016000018054600181600116156101000203166002900480601f0160208091040260200160405190810160405280929190818152602001828054600181600116156101000203166002900480156111a05780601f10611175576101008083540402835291602001916111a0565b820191906000526020600020905b81548152906001019060200180831161118357829003601f168201915b50505050509050919050565b60006001600260008473ffffffffffffffffffffffffffffffffffffffff1673ffffffffffffffffffffffffffffffffffffffff16815260200190815260200160002054815481106111fa57fe5b9060005260206000209060040201600301549050919050565b6000809054906101000a900473ffffffffffffffffffffffffffffffffffffffff1681565b606060008060009054906101000a900473ffffffffffffffffffffffffffffffffffffffff1673ffffffffffffffffffffffffffffffffffffffff163373ffffffffffffffffffffffffffffffffffffffff161461129557600080fd5b6000600260008573ffffffffffffffffffffffffffffffffffffffff1673ffffffffffffffffffffffffffffffffffffffff168152602001908152602001600020549050600181815481106112e657fe5b90600052602060002090600402016000016001828154811061130457fe5b906000526020600020906004020160030154818054600181600116156101000203166002900480601f0160208091040260200160405190810160405280929190818152602001828054600181600116156101000203166002900480156113ab5780601f10611380576101008083540402835291602001916113ab565b820191906000526020600020905b81548152906001019060200180831161138e57829003601f168201915b505050505091509250925050915091565b60006001600260008573ffffffffffffffffffffffffffffffffffffffff1673ffffffffffffffffffffffffffffffffffffffff168152602001908152602001600020548154811061140a57fe5b9060005260206000209060040201600101826040518082805190602001908083835b6020831061144f578051825260208201915060208101905060208303925061142c565b6001836020036101000a038019825116818451168082178552505050505050905001915050908152602001604051809103902054905092915050565b60026020528060005260406000206000915090505481565b816001600260003373ffffffffffffffffffffffffffffffffffffffff1673ffffffffffffffffffffffffffffffffffffffff16815260200190815260200160002054815481106114f057fe5b9060005260206000209060040201600101826040518082805190602001908083835b602083106115355780518252602082019150602081019050602083039250611512565b6001836020036101000a0380198251168184511680821785525050505050509050019150509081526020016040518091039020600082825401925050819055505050565b604051806040016040528060608152602001600081525090565b828054600181600116156101000203166002900490600052602060002090601f016020900481019282601f106115d457805160ff1916838001178555611602565b82800160010185558215611602579182015b828111156116015782518255916020019190600101906115e6565b5b50905061160f9190611613565b5090565b61163591905b80821115611631576000816000905550600101611619565b5090565b9056fea165627a7a72305820a360a01f9010b52adaca118f18553bbdf61dc6e71d6c47597c3a377ca5e1ab360029",
  "source": "pragma solidity ^0.5.6;\r\n\r\ncontract MedicalData{\r\n    event NewUser(uint id,string company);\r\n    address public owner; //=>msg.sender\r\n\r\n    struct User{\r\n         string company;//회사명\r\n         mapping (string => uint)LookCnt; //유저 조회 횟수\r\n         mapping (string => uint)DownloadCnt; //유저 다운로드 횟수\r\n         uint ConnectCnt; //유저 접속 횟수\r\n    }\r\n    \r\n    User[] public users; //유저 저장 배열\r\n    mapping(address => uint) public userAddressToId; //유저 id에 address mapping\r\n\r\n    constructor() public {\r\n        owner = msg.sender;\r\n        login(\"manager\");\r\n    }\r\n    \r\n    function createUser(string memory company) public {\r\n        User memory userInfo;\r\n        userInfo.company = company;\r\n        uint id = users.push(userInfo)-1; //id값 부여\r\n        userAddressToId[msg.sender] = id; //id값에 유저 address mapping\r\n        emit NewUser(id,company); //이벤트 발생(프론트 전달)\r\n    }\r\n\r\n    function getLookCount(address add,string memory file) public view returns (uint) {\r\n        return users[userAddressToId[add]].LookCnt[file];\r\n    }\r\n    \r\n    function getDownloadCount(address add,string memory file) public view returns (uint) {\r\n        return users[userAddressToId[add]].DownloadCnt[file];\r\n    }\r\n\r\n    function getLoginCount(address add) public view returns (uint){\r\n        return users[userAddressToId[add]].ConnectCnt;\r\n    }\r\n\r\n    function getCompany(address add)public view returns (string memory){\r\n        return users[userAddressToId[add]].company;\r\n    }\r\n\r\n    function Download(uint nums,string memory file) public {\r\n        users[userAddressToId[msg.sender]].DownloadCnt[file]+=nums;\r\n    }\r\n\r\n    function reading(uint nums,string memory file) public {\r\n        users[userAddressToId[msg.sender]].LookCnt[file]+=nums;\r\n    }\r\n\r\n    function login(string memory company) public {\r\n         if(userAddressToId[msg.sender]==0)\r\n             createUser(company);\r\n        users[userAddressToId[msg.sender]].ConnectCnt++;\r\n    }\r\n\r\n    function findUsers(address add)public view returns(string memory company,uint connect){\r\n        require(msg.sender==owner); //관리자만 가능하게\r\n        uint id = userAddressToId[add];\r\n        return (users[id].company,users[id].ConnectCnt);\r\n    }\r\n    \r\n    function findDataAccess(address add,string memory file)public view returns(uint Look,uint Download)\r\n    {\r\n        require(msg.sender==owner);\r\n        uint id = userAddressToId[add];\r\n        return(users[id].LookCnt[file],users[id].DownloadCnt[file]);\r\n    }\r\n\r\n    function () external payable{}\r\n}\r\n",
  "sourcePath": "/home/ubuntu/klaytn/Ground_X_project/Medical_data_klaytn/contracts/MedicalData.sol",
  "compiler": {
    "name": "solc",
    "version": "0.5.8+commit.23d335f2.Emscripten.clang"
  },
  "schemaVersion": "3.0.11",
  "updatedAt": "2019-08-15T03:31:58.170Z",
  "devdoc": {
    "methods": {}
  },
  "userdoc": {
    "methods": {}
  }
}